:100000000CC013C012C011C010C00FC00EC00DC074
:100010000CC00BC00AC009C008C011241FBECFE528
:10002000D2E0DEBFCDBF4ED17BC1EACF823069F0D6
:10003000833028F0833059F0843029F008958130DE
:10004000E9F76ABB089561BB089567BB089564BB77
:100050000895683058F4413051F0442339F4823027
:10006000C1F18330B0F4813009F43FC0089582308B
:1000700009F45EC08330F0F48130C1F72AB381E027
:1000800090E002C0880F991F6A95E2F7282B2ABBDF
:100090000895833009F440C0843041F721B381E0F2
:1000A00090E002C0880F991F6A95E2F7809582233D
:1000B00081BB0895833029F18430C1F621B381E0FA
:1000C00090E002C0880F991F6A95E2F7282B21BBA8
:1000D000089527B381E090E002C0880F991F6A95C8
:1000E000E2F78095822387BB08952AB381E090E0F0
:1000F00002C0880F991F6A95E2F7809582238ABB18
:10010000089524B381E090E002C0880F991F6A959A
:10011000E2F7282B24BB089524B381E090E002C0CD
:10012000880F991F6A95E2F78095822384BB089512
:1001300027B381E090E002C0880F991F6A95E2F72B
:10014000282B27BB0895823069F0833028F0833054
:1001500059F0843029F008958130E9F76BBB089598
:1001600062BB089568BB089565BB0895683058F474
:10017000413051F0442339F48230C1F18330B0F47E
:10018000813009F43FC00895823009F45EC08330A5
:10019000F0F48130C1F72BB381E090E002C0880F0A
:1001A000991F6A95E2F7282B2BBB0895833009F439
:1001B00040C0843041F722B381E090E002C0880F54
:1001C000991F6A95E2F78095822382BB0895833058
:1001D00029F18430C1F622B381E090E002C0880F9B
:1001E000991F6A95E2F7282B22BB089528B381E076
:1001F00090E002C0880F991F6A95E2F780958223EC
:1002000088BB08952BB381E090E002C0880F991F4E
:100210006A95E2F7809582238BBB089525B381E030
:1002200090E002C0880F991F6A95E2F7282B25BB42
:10023000089525B381E090E002C0880F991F6A9568
:10024000E2F78095822385BB089528B381E090E092
:1002500002C0880F991F6A95E2F7282B28BB0895E2
:10026000683040F4823099F0833030F0833009F107
:100270008430B1F080E008958130E1F789B390E0F7
:1002800002C0959587956A95E2F78170089586B3C7
:1002900090E002C0959587956A95E2F78170089580
:1002A00080B390E002C0959587956A95E2F78170DA
:1002B000089583B390E002C0959587956A95E2F71B
:1002C00081700895FF920F931F93CF93DF9384E083
:1002D0006FEFACDE9FE0F92E00E010E0C9E1D0E066
:1002E00084E06F2D30DF20E030E08C2F9D2F0197D0
:1002F000F1F72F5F3F4F83E128383807B1F70F5FE1
:100300001F4F083011052CF08FE0F82E00E010E0B0
:10031000E7CF8F2D880FFF1CFF24FF1CF82AE0CFAA
:04032000F894FFCF7F
:00000001FF
